:0300000002041DDA
:0C041D00787FE4F6D8FD75812C020464A1
:1005A600011200012300040E0000000004140000E4
:1005B6000000021F0001011C0001130004180000C6
:1005C6000000012400020C0000021D0000022100B0
:0105D6000123
:10068C0075891175B81AD2A8D2AAD2AFD2A9D28CB8
:05069C00D2ABC28E226A
:0B06A100C28E758DF8758B30D28E2252
:10067600851B17851A16851915851814751C01C250
:06068600A305120206A10B
:10057200E5137016E50D450C7008F50C750D01C2FA
:10058200A022E4F50CF50DD2A022E513B40114AEBD
:100592001FAF207C007D3B12001EED2401F520E4FC
:0405A2003CF51F22E3
:10065D00E5137008C2A1751301051222E513B4014B
:09066D0007D2A1E4F513151222D5
:10062100C3E51B9511FFE51A9510FEE519950FFD20
:0F063100E518950EFCE47B14FAF9F81200E522A7
:03000B0002038568
:10038500C0E0C0F0C083C082C0D075D000C000C03E
:1003950001C002C003C004C005C006C007758C3C7F
:1003A500758AB0E51B2401F51BE4351AF51AE43509
:1003B50019F519E43518F518E47B0AFAF9F8AF1BB5
:1003C500AE1AAD19AC181200E5AC00AD01AE02AF26
:1003D50003E4FBFAF9F8C31201777007E523F45437
:1003E50001F523E51C70161206217C007D3C1200E8
:1003F50073C3EF9520EE951F4003120676D007D004
:1004050006D005D004D003D002D001D000D0D0D082
:0804150082D083D0F0D0E03268
:030003000205FFF4
:1005FF00C0E0E524700F752401851B0B851A0A8551
:10060F001909851808C28E758DF8758B30D28ED06A
:02061F00E032C7
:03001B000202429C
:10024200C0E0C0F0C083C082C0D075D000C000C082
:1002520001C002C003C004C005C006C007E5246097
:1002620037C28E752400C3E51B950BFFE51A950A6C
:10027200FEE5199509FDE5189508FCE47B14FAF9E9
:10028200F8D3120177500512065D8003120572E55C
:100292001C603A1206A18035758DF8758B30E52207
:1002A200640145217002B295051EE51E7002051D0E
:1002B2006464451D7017E522452170047F018002A8
:1002C2007F007521008F22751D00751E00D007D09A
:1002D20006D005D004D003D002D001D000D0D0D0B7
:0802E20082D083D0F0D0E0329D
:030013000205D80B
:1005D800751B00751A00751900751800851B1185A3
:1005E8001A1085190F85180E751200751C00C28E19
:0705F800D2A3C2A4D2A43279
:1005340075A0FF12068CE513701DE5247014E51CEC
:100544007008E50D450C701880001206211202EAAD
:1005540080E412064080DFE513B401DAE524700973
:0E056400AF20AE1F1204A980CD12064080C841
:10064000C2907580FFD290C2917580FFD291C29204
:0D0650007580FFD292C2937580FFD2932275
:040188008E2B8F2CFF
:10018C00E52B701DE52C14600E14600F1460102408
:10019C0003700EC290800AC2918006C2928002C285
:1001AC0093AE04AF05EC705BEFB40A0050559001B0
:1001BC00C1F82828730201DF0201E40201E90201FF
:1001CC00EE0201F30201F80201FD02020202020733
:1001DC0002020C7580C0802B7580F980267580A476
:1001EC0080217580B0801C758099801775809280F5
:1001FC0012758082800D7580F88008758080800370
:10020C00758090EB4A6002C2877F907E01EF1FAC35
:10021C000670011E4C70F6E52B701AE52C14600D5F
:10022C0014600D14600D2403700BD29022D2912215
:05023C00D29222D293D2
:01024100229A
:0404A900AB07AA06ED
:1004AD00E5126007E52360030206407C007D0AAF7C
:1004BD0003AE021200738C258D267C007D0AAF03DE
:1004CD00AE02120073AA06AB077C007D0A12007300
:1004DD008C278D287C007D0AAF03AE02120073AA13
:1004ED0006AB077C007D0A1200738C298D2A7C00D7
:1004FD007D0AAF03AE02120073AD07AC06E4FBFA42
:10050D00FFFE120188E4AD2AAC297F01FE1201889D
:10051D00E4AD28AC277F02FE120188E4AD26AC25A0
:06052D007F03FE120188AD
:0105330022A5
:0402EA00AB07AA06AE
:1002EE00E5126007E52360030206407C007D3CAF0B
:1002FE0003AE021200738F828E83AE02AF037C00B8
:10030E007D3C120073AB05AA047C007D0AAF82AE61
:10031E00831200738C298D2A7C007D0AAF82AE83F6
:10032E001200738E838F827C007D0AAF03AE0212A1
:10033E0000738C258D267C007D0AAF03AE02120061
:10034E0073AB078E278B28AD82AC83E4FBFAFFFEDE
:10035E001201880BAD2AAC297F017E00120188E4C0
:10036E001BAD28AC277F02FE120188E4AD26AC251A
:06037E007F03FE1201885E
:010384002256
:10042900020534E493A3F8E493A34003F68001F2B0
:1004390008DFF48029E493A3F85407240CC8C333D4
:10044900C4540F4420C8834004F456800146F6DFA3
:10045900E4800B01020408102040809005A6E47E88
:10046900019360BCA3FF543F30E509541FFEE49398
:10047900A360010ECF54C025E060A840B8E493A35F
:10048900FAE493A3F8E493A3C8C582C8CAC583CA8A
:10049900F0A3C8C582C8CAC583CADFE9DEE780BE42
:0105D7000023
:10001E00BC000BBE0029EF8DF084FFADF022E4CCC6
:10002E00F875F008EF2FFFEE33FEEC33FCEE9DEC8F
:10003E00984005FCEE9DFE0FD5F0E9E4CEFD22EDD5
:10004E00F8F5F0EE8420D21CFEADF075F008EF2F1F
:10005E00FFED33FD4007985006D5F0F222C398FD10
:05006E000FD5F0EA22AD
:10007300C2D5EC30E709B2D5E4C39DFDE49CFCEEA8
:1000830030E715B2D5E4C39FFFE49EFE12001EC302
:10009300E49DFDE49CFC800312001E30D507C3E4FD
:0600A3009FFFE49EFE2217
:1000A90075F008758200EF2FFFEE33FECD33CDCC0E
:1000B90033CCC58233C5829BED9AEC99E582984091
:1000C9000CF582EE9BFEED9AFDEC99FC0FD5F0D66E
:1000D900E4CEFBE4CDFAE4CCF9A88222B800C1B998
:1000E9000059BA002DEC8BF084CFCECDFCE5F0CBD6
:1000F900F97818EF2FFFEE33FEED33FDEC33FCEB0F
:1001090033FB10D703994004EB99FB0FD8E5E4F9C9
:10011900FA227818EF2FFFEE33FEED33FDEC33FCB6
:10012900C933C910D7059BE99A4007EC9BFCE99AAA
:10013900F90FD8E0E4C9FAE4CCFB2275F010EF2FEF
:10014900FFEE33FEED33FDCC33CCC833C810D707EF
:100159009BEC9AE899400AED9BFDEC9AFCE899F82A
:0E0169000FD5F0DAE4CDFBE4CCFAE4C8F922BD
:10017700EB9FF5F0EA9E42F0E99D42F0E89C45F0DE
:010187002255
:00000001FF
